:020000040800F2
:100000000005002001010008250100082701000863
:10001000290100082B0100082D0100080000000044
:100020000000000000000000000000002F01000898
:10003000310100080000000033010008350100080C
:1000400037010008370100083701000837010008B0
:1000500037010008370100083701000837010008A0
:100060003701000837010008370100083701000890
:100070003701000837010008370100083701000880
:100080003701000837010008370100083701000870
:100090003701000837010008370100083701000860
:1000A0003701000837010008370100083701000850
:1000B0003701000837010008370100083701000840
:1000C0003701000837010008370100083701000830
:1000D0003701000837010008370100083701000820
:1000E000370100083701000837010008DFF80CD09D
:1000F00000F02CF80048004791010008000500209E
:100100000D488047DFF83400016841F4E0210160C8
:10011000BFF34F8FDFF82800DFF8281001600A488E
:1001200000477047FEE7FEE7FEE7FEE7FEE7FEE773
:10013000FEE7FEE7FEE7FEE72301000824ED00E00E
:100140000CED00E00003FA05ED000008064C074D39
:1001500006E0E06840F0010394E807009847103497
:10016000AC42F6D3FFF7C6FF0802000818020008E9
:1001700002E008C8121F08C1002AFAD17047704770
:10018000002001E001C1121F002AFBD170470000CE
:10019000012407E02146054800F00CF8044941F825
:1001A0002400641C3F2CF5DB00BFFEE718020008AA
:1001B0000000002031B5124A00F00AF880FB00452B
:1001C00001BC104A00F004F8C0FB0045284630BDD1
:1001D000F0B44FF000034FF000044FF0000530F88A
:1001E000136032F9157006FB07550C4404F03F0408
:1001F00003F10103402BF2D12846F0BC7047000008
:100200009802000818030008980300080000002066
:100210000005000080010008A3087303B008B30BB9
:100220006F066205ED098509350661074509130862
:100230007A070708C1075108D408F906F106F4093E
:10024000D4081B05E407A20BF7060604760ACB0BBD
:100250000904FC04520DAD09B5011C08B40EDC05FF
:1002600091012D0C770D09022304460FCB091400D0
:100270008608D20F2F050801D40C790DAB017C0440
:100280002C0F5509B800D008B10E53057A020E0C98
:10029000F70B2B03BE05FA0CFF7F627F8A7D7D7A08
:1002A0004276E3706E6AF262825A34511D47573CBF
:1002B000FC302825F9188C0C000074F307E7D8DA15
:1002C00004CFA9C3E3B8CCAE7EA50E9D92951D8F39
:1002D000BE89838576829E8000809E80768283851B
:1002E000BE891D8F92950E9D7EA5CCAEE3B8A9C3A5
:1002F00004CFD8DA07E774F300008C0CF91828252E
:10030000FC30573C1D473451825AF2626E6AE370EA
:1003100042767D7A8A7D627F00008C0CF918282550
:10032000FC30573C1D473451825AF2626E6AE370CA
:1003300042767D7A8A7D627FFF7F627F8A7D7D7AC9
:100340004276E3706E6AF262825A34511D47573C1E
:10035000FC302825F9188C0C000074F307E7D8DA74
:1003600004CFA9C3E3B8CCAE7EA50E9D92951D8F98
:10037000BE89838576829E8000809E80768283857A
:10038000BE891D8F92950E9D7EA5CCAEE3B8A9C304
:0803900004CFD8DA07E774F38B
:04000005080000ED02
:00000001FF
