:020000040800F2
:100000001004002001010008250100082701000854
:10001000290100082B0100082D0100080000000044
:100020000000000000000000000000002F01000898
:10003000310100080000000033010008350100080C
:1000400037010008370100083701000837010008B0
:1000500037010008370100083701000837010008A0
:100060003701000837010008370100083701000890
:100070003701000837010008370100083701000880
:100080003701000837010008370100083701000870
:100090003701000837010008370100083701000860
:1000A0003701000837010008370100083701000850
:1000B0003701000837010008370100083701000840
:1000C0003701000837010008370100083701000830
:1000D0003701000837010008370100083701000820
:1000E000370100083701000837010008DFF80CD09D
:1000F00000F042F8004800474503000810040020C3
:100100000D488047DFF83400016841F4E0210160C8
:10011000BFF34F8FDFF82800DFF8281001600A488E
:1001200000477047FEE7FEE7FEE7FEE7FEE7FEE773
:10013000FEE7FEE7FEE7FEE72301000824ED00E00E
:100140000CED00E00003FA05ED00000830B50B46A9
:10015000014600202022012409E021FA02F59D42F7
:1001600005D303FA02F5491B04FA02F52844151ECB
:10017000A2F10102F1DC30BD064C074D06E0E0685B
:1001800040F0010394E8070098471034AC42F6D3DE
:10019000FFF7B0FFA4030008C40300080FB4054B29
:1001A00010B503A9044A029800F018F810BC5DF8D5
:1001B00014FB0000310300080800002002E008C81A
:1001C000121F08C1002AFAD170477047002001E0D1
:1001D00001C1121F002AFBD1704700002DE9FF4F1B
:1001E00089B09B460446002506E025280BD05A46D8
:1001F0000B999047641C6D1C20780028F5D10DB038
:100200002846BDE8F08F0027B8460122474900E0A4
:10021000074314F8013F203B02FA03F00842F7D1EC
:1002200020782E2819D114F8010F47F004072A2846
:100230000ED06FF02F022078A0F1300109290CD8E0
:1002400008EB880102EB410100EB0108641CF2E7B6
:100250000A98641C50F8048B0A9020780028CED0AD
:10026000642808D0692806D075281ED05A460B99F4
:1002700090476D1C58E00A994FF00A0901C90A918C
:10028000002802DA40422D2102E0390504D52B2155
:100290008DF82010012103E0F90704D02021F7E7B1
:1002A0008A4608AE0DE00021FAE70A994FF00A09E4
:1002B00001C90A91F7E74946FFF748FF303106F8D0
:1002C000011D0028F7D1ADEB060000F120097807E9
:1002D00001D44FF00108C84502DDA8EB090000E099
:1002E00000208046002706E008A85A46C05D0B990A
:1002F00090476D1C7F1C5745F6DB04E030205A46C2
:100300000B9990476D1CB8F10001A8F10108F5DCCC
:1003100005E016F8010B5A460B9990476D1CB9F190
:100320000001A9F10109F4DC641C65E7092801005A
:1003300038B504468DF8000069460320ABBE204660
:1003400038BD000010B500240AE0204600F018F87F
:10035000064908600846016805A0FFF71FFF641CF6
:10036000064800688442F0DB002010BD0400002035
:10037000536F6D6D65203D20256400000000002056
:1003800000B506494FF0020300FB03F0095E044A82
:10039000125E01FB01F302FB023000BDD403000832
:1003A000C4030008E4030008000000200C00000063
:1003B000BC010008F00300080C0000200404000049
:1003C000CC010008FF7F825A00007EA500807EA538
:1003D0000000825A0000825AFF7F825A00007EA5E8
:1003E00000807EA508000000000000000000000062
:04000005080000ED02
:00000001FF
